{
  "contractName": "LightsaberAuction",
  "abi": [
    {
      "anonymous": false,
      "inputs": [
        {
          "indexed": true,
          "internalType": "address",
          "name": "owner",
          "type": "address"
        },
        {
          "indexed": true,
          "internalType": "address",
          "name": "approved",
          "type": "address"
        },
        {
          "indexed": true,
          "internalType": "uint256",
          "name": "tokenId",
          "type": "uint256"
        }
      ],
      "name": "Approval",
      "type": "event"
    },
    {
      "anonymous": false,
      "inputs": [
        {
          "indexed": true,
          "internalType": "address",
          "name": "owner",
          "type": "address"
        },
        {
          "indexed": true,
          "internalType": "address",
          "name": "operator",
          "type": "address"
        },
        {
          "indexed": false,
          "internalType": "bool",
          "name": "approved",
          "type": "bool"
        }
      ],
      "name": "ApprovalForAll",
      "type": "event"
    },
    {
      "anonymous": false,
      "inputs": [
        {
          "indexed": false,
          "internalType": "uint256",
          "name": "tokenId",
          "type": "uint256"
        },
        {
          "indexed": false,
          "internalType": "uint256",
          "name": "highestBid",
          "type": "uint256"
        },
        {
          "indexed": false,
          "internalType": "address",
          "name": "highestBidder",
          "type": "address"
        }
      ],
      "name": "AuctionBid",
      "type": "event"
    },
    {
      "anonymous": false,
      "inputs": [
        {
          "indexed": false,
          "internalType": "address",
          "name": "owner",
          "type": "address"
        },
        {
          "indexed": false,
          "internalType": "uint256",
          "name": "tokenId",
          "type": "uint256"
        },
        {
          "indexed": false,
          "internalType": "uint256",
          "name": "startDate",
          "type": "uint256"
        },
        {
          "indexed": false,
          "internalType": "uint256",
          "name": "endDate",
          "type": "uint256"
        },
        {
          "indexed": false,
          "internalType": "uint256",
          "name": "highestBid",
          "type": "uint256"
        },
        {
          "indexed": false,
          "internalType": "address",
          "name": "highestBidder",
          "type": "address"
        }
      ],
      "name": "AuctionCreated",
      "type": "event"
    },
    {
      "anonymous": false,
      "inputs": [
        {
          "indexed": false,
          "internalType": "uint256",
          "name": "tokenId",
          "type": "uint256"
        },
        {
          "indexed": false,
          "internalType": "uint256",
          "name": "highestBid",
          "type": "uint256"
        },
        {
          "indexed": false,
          "internalType": "address",
          "name": "highestBidder",
          "type": "address"
        }
      ],
      "name": "AuctionEnded",
      "type": "event"
    },
    {
      "anonymous": false,
      "inputs": [
        {
          "indexed": false,
          "internalType": "string",
          "name": "colorCrystal",
          "type": "string"
        },
        {
          "indexed": false,
          "internalType": "string",
          "name": "hilt",
          "type": "string"
        }
      ],
      "name": "LightsaberCreated",
      "type": "event"
    },
    {
      "anonymous": false,
      "inputs": [
        {
          "indexed": true,
          "internalType": "address",
          "name": "from",
          "type": "address"
        },
        {
          "indexed": true,
          "internalType": "address",
          "name": "to",
          "type": "address"
        },
        {
          "indexed": true,
          "internalType": "uint256",
          "name": "tokenId",
          "type": "uint256"
        }
      ],
      "name": "Transfer",
      "type": "event"
    },
    {
      "inputs": [
        {
          "internalType": "address",
          "name": "to",
          "type": "address"
        },
        {
          "internalType": "uint256",
          "name": "tokenId",
          "type": "uint256"
        }
      ],
      "name": "approve",
      "outputs": [],
      "stateMutability": "nonpayable",
      "type": "function"
    },
    {
      "inputs": [
        {
          "internalType": "address",
          "name": "owner",
          "type": "address"
        }
      ],
      "name": "balanceOf",
      "outputs": [
        {
          "internalType": "uint256",
          "name": "",
          "type": "uint256"
        }
      ],
      "stateMutability": "view",
      "type": "function",
      "constant": true
    },
    {
      "inputs": [],
      "name": "baseURI",
      "outputs": [
        {
          "internalType": "string",
          "name": "",
          "type": "string"
        }
      ],
      "stateMutability": "view",
      "type": "function",
      "constant": true
    },
    {
      "inputs": [
        {
          "internalType": "bytes32",
          "name": "",
          "type": "bytes32"
        }
      ],
      "name": "combinationExists",
      "outputs": [
        {
          "internalType": "bool",
          "name": "",
          "type": "bool"
        }
      ],
      "stateMutability": "view",
      "type": "function",
      "constant": true
    },
    {
      "inputs": [
        {
          "internalType": "uint256",
          "name": "tokenId",
          "type": "uint256"
        }
      ],
      "name": "getApproved",
      "outputs": [
        {
          "internalType": "address",
          "name": "",
          "type": "address"
        }
      ],
      "stateMutability": "view",
      "type": "function",
      "constant": true
    },
    {
      "inputs": [
        {
          "internalType": "address",
          "name": "owner",
          "type": "address"
        },
        {
          "internalType": "address",
          "name": "operator",
          "type": "address"
        }
      ],
      "name": "isApprovedForAll",
      "outputs": [
        {
          "internalType": "bool",
          "name": "",
          "type": "bool"
        }
      ],
      "stateMutability": "view",
      "type": "function",
      "constant": true
    },
    {
      "inputs": [
        {
          "internalType": "uint256",
          "name": "",
          "type": "uint256"
        }
      ],
      "name": "lightsaberToOwner",
      "outputs": [
        {
          "internalType": "address",
          "name": "",
          "type": "address"
        }
      ],
      "stateMutability": "view",
      "type": "function",
      "constant": true
    },
    {
      "inputs": [
        {
          "internalType": "uint256",
          "name": "",
          "type": "uint256"
        }
      ],
      "name": "lightsabers",
      "outputs": [
        {
          "internalType": "string",
          "name": "colorCrystal",
          "type": "string"
        },
        {
          "internalType": "string",
          "name": "hilt",
          "type": "string"
        }
      ],
      "stateMutability": "view",
      "type": "function",
      "constant": true
    },
    {
      "inputs": [],
      "name": "minimumPrice",
      "outputs": [
        {
          "internalType": "uint256",
          "name": "",
          "type": "uint256"
        }
      ],
      "stateMutability": "view",
      "type": "function",
      "constant": true
    },
    {
      "inputs": [
        {
          "internalType": "string",
          "name": "_colorCrystal",
          "type": "string"
        },
        {
          "internalType": "string",
          "name": "_hilt",
          "type": "string"
        }
      ],
      "name": "mint",
      "outputs": [],
      "stateMutability": "nonpayable",
      "type": "function"
    },
    {
      "inputs": [],
      "name": "name",
      "outputs": [
        {
          "internalType": "string",
          "name": "",
          "type": "string"
        }
      ],
      "stateMutability": "view",
      "type": "function",
      "constant": true
    },
    {
      "inputs": [
        {
          "internalType": "uint256",
          "name": "tokenId",
          "type": "uint256"
        }
      ],
      "name": "ownerOf",
      "outputs": [
        {
          "internalType": "address",
          "name": "",
          "type": "address"
        }
      ],
      "stateMutability": "view",
      "type": "function",
      "constant": true
    },
    {
      "inputs": [
        {
          "internalType": "address",
          "name": "",
          "type": "address"
        }
      ],
      "name": "pendingReturns",
      "outputs": [
        {
          "internalType": "uint256",
          "name": "",
          "type": "uint256"
        }
      ],
      "stateMutability": "view",
      "type": "function",
      "constant": true
    },
    {
      "inputs": [
        {
          "internalType": "address",
          "name": "from",
          "type": "address"
        },
        {
          "internalType": "address",
          "name": "to",
          "type": "address"
        },
        {
          "internalType": "uint256",
          "name": "tokenId",
          "type": "uint256"
        }
      ],
      "name": "safeTransferFrom",
      "outputs": [],
      "stateMutability": "nonpayable",
      "type": "function"
    },
    {
      "inputs": [
        {
          "internalType": "address",
          "name": "from",
          "type": "address"
        },
        {
          "internalType": "address",
          "name": "to",
          "type": "address"
        },
        {
          "internalType": "uint256",
          "name": "tokenId",
          "type": "uint256"
        },
        {
          "internalType": "bytes",
          "name": "_data",
          "type": "bytes"
        }
      ],
      "name": "safeTransferFrom",
      "outputs": [],
      "stateMutability": "nonpayable",
      "type": "function"
    },
    {
      "inputs": [
        {
          "internalType": "address",
          "name": "operator",
          "type": "address"
        },
        {
          "internalType": "bool",
          "name": "approved",
          "type": "bool"
        }
      ],
      "name": "setApprovalForAll",
      "outputs": [],
      "stateMutability": "nonpayable",
      "type": "function"
    },
    {
      "inputs": [
        {
          "internalType": "bytes4",
          "name": "interfaceId",
          "type": "bytes4"
        }
      ],
      "name": "supportsInterface",
      "outputs": [
        {
          "internalType": "bool",
          "name": "",
          "type": "bool"
        }
      ],
      "stateMutability": "view",
      "type": "function",
      "constant": true
    },
    {
      "inputs": [],
      "name": "symbol",
      "outputs": [
        {
          "internalType": "string",
          "name": "",
          "type": "string"
        }
      ],
      "stateMutability": "view",
      "type": "function",
      "constant": true
    },
    {
      "inputs": [
        {
          "internalType": "uint256",
          "name": "index",
          "type": "uint256"
        }
      ],
      "name": "tokenByIndex",
      "outputs": [
        {
          "internalType": "uint256",
          "name": "",
          "type": "uint256"
        }
      ],
      "stateMutability": "view",
      "type": "function",
      "constant": true
    },
    {
      "inputs": [
        {
          "internalType": "uint256",
          "name": "",
          "type": "uint256"
        }
      ],
      "name": "tokenIdToAuction",
      "outputs": [
        {
          "internalType": "address",
          "name": "owner",
          "type": "address"
        },
        {
          "internalType": "uint256",
          "name": "tokenId",
          "type": "uint256"
        },
        {
          "internalType": "uint256",
          "name": "startDate",
          "type": "uint256"
        },
        {
          "internalType": "uint256",
          "name": "endDate",
          "type": "uint256"
        },
        {
          "internalType": "uint256",
          "name": "highestBid",
          "type": "uint256"
        },
        {
          "internalType": "address",
          "name": "highestBidder",
          "type": "address"
        },
        {
          "internalType": "bool",
          "name": "ended",
          "type": "bool"
        }
      ],
      "stateMutability": "view",
      "type": "function",
      "constant": true
    },
    {
      "inputs": [
        {
          "internalType": "address",
          "name": "owner",
          "type": "address"
        },
        {
          "internalType": "uint256",
          "name": "index",
          "type": "uint256"
        }
      ],
      "name": "tokenOfOwnerByIndex",
      "outputs": [
        {
          "internalType": "uint256",
          "name": "",
          "type": "uint256"
        }
      ],
      "stateMutability": "view",
      "type": "function",
      "constant": true
    },
    {
      "inputs": [
        {
          "internalType": "uint256",
          "name": "tokenId",
          "type": "uint256"
        }
      ],
      "name": "tokenURI",
      "outputs": [
        {
          "internalType": "string",
          "name": "",
          "type": "string"
        }
      ],
      "stateMutability": "view",
      "type": "function",
      "constant": true
    },
    {
      "inputs": [],
      "name": "totalSupply",
      "outputs": [
        {
          "internalType": "uint256",
          "name": "",
          "type": "uint256"
        }
      ],
      "stateMutability": "view",
      "type": "function",
      "constant": true
    },
    {
      "inputs": [
        {
          "internalType": "address",
          "name": "from",
          "type": "address"
        },
        {
          "internalType": "address",
          "name": "to",
          "type": "address"
        },
        {
          "internalType": "uint256",
          "name": "tokenId",
          "type": "uint256"
        }
      ],
      "name": "transferFrom",
      "outputs": [],
      "stateMutability": "nonpayable",
      "type": "function"
    },
    {
      "inputs": [
        {
          "internalType": "uint256",
          "name": "_tokenId",
          "type": "uint256"
        },
        {
          "internalType": "uint256",
          "name": "_startDate",
          "type": "uint256"
        },
        {
          "internalType": "uint256",
          "name": "_endDate",
          "type": "uint256"
        },
        {
          "internalType": "uint256",
          "name": "_highestBid",
          "type": "uint256"
        }
      ],
      "name": "createAuction",
      "outputs": [],
      "stateMutability": "nonpayable",
      "type": "function"
    },
    {
      "inputs": [
        {
          "internalType": "uint256",
          "name": "_tokenId",
          "type": "uint256"
        }
      ],
      "name": "bidOnAuction",
      "outputs": [],
      "stateMutability": "payable",
      "type": "function",
      "payable": true
    },
    {
      "inputs": [],
      "name": "withdrawAnOverbidBid",
      "outputs": [
        {
          "internalType": "bool",
          "name": "",
          "type": "bool"
        }
      ],
      "stateMutability": "nonpayable",
      "type": "function"
    },
    {
      "inputs": [
        {
          "internalType": "uint256",
          "name": "_tokenId",
          "type": "uint256"
        }
      ],
      "name": "endAuction",
      "outputs": [],
      "stateMutability": "nonpayable",
      "type": "function"
    }
  ],
  "bytecode": "0x6080604052655af3107a4000600f553480156200001b57600080fd5b506040518060400160405280600f81526020017f4c696768747361626572466f72676500000000000000000000000000000000008152506040518060400160405280600381526020017f4c53460000000000000000000000000000000000000000000000000000000000815250620000a06301ffc9a760e01b6200012260201b60201c565b8160069080519060200190620000b89291906200022b565b508060079080519060200190620000d19291906200022b565b50620000ea6380ac58cd60e01b6200012260201b60201c565b62000102635b5e139f60e01b6200012260201b60201c565b6200011a63780e9d6360e01b6200012260201b60201c565b5050620002e1565b63ffffffff60e01b817bffffffffffffffffffffffffffffffffffffffffffffffffffffffff19161415620001bf576040517f08c379a000000000000000000000000000000000000000000000000000000000815260040180806020018281038252601c8152602001807f4552433136353a20696e76616c696420696e746572666163652069640000000081525060200191505060405180910390fd5b6001600080837bffffffffffffffffffffffffffffffffffffffffffffffffffffffff19167bffffffffffffffffffffffffffffffffffffffffffffffffffffffff1916815260200190815260200160002060006101000a81548160ff02191690831515021790555050565b828054600181600116156101000203166002900490600052602060002090601f016020900481019282620002635760008555620002af565b82601f106200027e57805160ff1916838001178555620002af565b82800160010185558215620002af579182015b82811115620002ae57825182559160200191906001019062000291565b5b509050620002be9190620002c2565b5090565b5b80821115620002dd576000816000905550600101620002c3565b5090565b61462280620002f16000396000f3fe6080604052600436106101b75760003560e01c80636352211e116100ec578063a22cb4651161008a578063c87b56dd11610064578063c87b56dd14610d17578063cb642ffc14610dcb578063e3b1475714610e1c578063e985e9c514610ec3576101b7565b8063a22cb46514610b6d578063b88d4fde14610bca578063b9a2de3a14610cdc576101b7565b80637f386b6c116100c65780637f386b6c146108ee5780638aa0fdad1461091957806395d89b4114610a7857806396abc46014610b08576101b7565b80636352211e146107945780636c0360eb146107f957806370a0823114610889576101b7565b806323b872dd116101595780632f745c59116101335780632f745c591461060257806342842e0e14610671578063431f21da146106ec5780634f6ccce714610745576101b7565b806323b872dd146104f457806326b387bb1461056f57806326b7aeea146105d4576101b7565b8063095ea7b311610195578063095ea7b3146103215780630cae49101461037c5780630fe9e1e61461049c57806318160ddd146104c9576101b7565b806301ffc9a7146101bc57806306fdde031461022c578063081812fc146102bc575b600080fd5b3480156101c857600080fd5b50610214600480360360208110156101df57600080fd5b8101908080357bffffffffffffffffffffffffffffffffffffffffffffffffffffffff19169060200190929190505050610f4a565b60405180821515815260200191505060405180910390f35b34801561023857600080fd5b50610241610fb1565b6040518080602001828103825283818151815260200191508051906020019080838360005b83811015610281578082015181840152602081019050610266565b50505050905090810190601f1680156102ae5780820380516001836020036101000a031916815260200191505b509250505060405180910390f35b3480156102c857600080fd5b506102f5600480360360208110156102df57600080fd5b8101908080359060200190929190505050611053565b604051808273ffffffffffffffffffffffffffffffffffffffff16815260200191505060405180910390f35b34801561032d57600080fd5b5061037a6004803603604081101561034457600080fd5b81019080803573ffffffffffffffffffffffffffffffffffffffff169060200190929190803590602001909291905050506110ee565b005b34801561038857600080fd5b506103b56004803603602081101561039f57600080fd5b8101908080359060200190929190505050611232565b604051808060200180602001838103835285818151815260200191508051906020019080838360005b838110156103f95780820151818401526020810190506103de565b50505050905090810190601f1680156104265780820380516001836020036101000a031916815260200191505b50838103825284818151815260200191508051906020019080838360005b8381101561045f578082015181840152602081019050610444565b50505050905090810190601f16801561048c5780820380516001836020036101000a031916815260200191505b5094505050505060405180910390f35b3480156104a857600080fd5b506104b1611396565b60405180821515815260200191505060405180910390f35b3480156104d557600080fd5b506104de6114ba565b6040518082815260200191505060405180910390f35b34801561050057600080fd5b5061056d6004803603606081101561051757600080fd5b81019080803573ffffffffffffffffffffffffffffffffffffffff169060200190929190803573ffffffffffffffffffffffffffffffffffffffff169060200190929190803590602001909291905050506114cb565b005b34801561057b57600080fd5b506105be6004803603602081101561059257600080fd5b81019080803573ffffffffffffffffffffffffffffffffffffffff169060200190929190505050611541565b6040518082815260200191505060405180910390f35b610600600480360360208110156105ea57600080fd5b8101908080359060200190929190505050611559565b005b34801561060e57600080fd5b5061065b6004803603604081101561062557600080fd5b81019080803573ffffffffffffffffffffffffffffffffffffffff16906020019092919080359060200190929190505050611815565b6040518082815260200191505060405180910390f35b34801561067d57600080fd5b506106ea6004803603606081101561069457600080fd5b81019080803573ffffffffffffffffffffffffffffffffffffffff169060200190929190803573ffffffffffffffffffffffffffffffffffffffff16906020019092919080359060200190929190505050611870565b005b3480156106f857600080fd5b506107436004803603608081101561070f57600080fd5b8101908080359060200190929190803590602001909291908035906020019092919080359060200190929190505050611890565b005b34801561075157600080fd5b5061077e6004803603602081101561076857600080fd5b8101908080359060200190929190505050611cb3565b6040518082815260200191505060405180910390f35b3480156107a057600080fd5b506107cd600480360360208110156107b757600080fd5b8101908080359060200190929190505050611cd6565b604051808273ffffffffffffffffffffffffffffffffffffffff16815260200191505060405180910390f35b34801561080557600080fd5b5061080e611d0d565b6040518080602001828103825283818151815260200191508051906020019080838360005b8381101561084e578082015181840152602081019050610833565b50505050905090810190601f16801561087b5780820380516001836020036101000a031916815260200191505b509250505060405180910390f35b34801561089557600080fd5b506108d8600480360360208110156108ac57600080fd5b81019080803573ffffffffffffffffffffffffffffffffffffffff169060200190929190505050611daf565b6040518082815260200191505060405180910390f35b3480156108fa57600080fd5b50610903611e84565b6040518082815260200191505060405180910390f35b34801561092557600080fd5b50610a766004803603604081101561093c57600080fd5b810190808035906020019064010000000081111561095957600080fd5b82018360208201111561096b57600080fd5b8035906020019184600183028401116401000000008311171561098d57600080fd5b91908080601f016020809104026020016040519081016040528093929190818152602001838380828437600081840152601f19601f820116905080830192505050505050509192919290803590602001906401000000008111156109f057600080fd5b820183602082011115610a0257600080fd5b80359060200191846001830284011164010000000083111715610a2457600080fd5b91908080601f016020809104026020016040519081016040528093929190818152602001838380828437600081840152601f19601f820116905080830192505050505050509192919290505050611e8a565b005b348015610a8457600080fd5b50610a8d612576565b6040518080602001828103825283818151815260200191508051906020019080838360005b83811015610acd578082015181840152602081019050610ab2565b50505050905090810190601f168015610afa5780820380516001836020036101000a031916815260200191505b509250505060405180910390f35b348015610b1457600080fd5b50610b4160048036036020811015610b2b57600080fd5b8101908080359060200190929190505050612618565b604051808273ffffffffffffffffffffffffffffffffffffffff16815260200191505060405180910390f35b348015610b7957600080fd5b50610bc860048036036040811015610b9057600080fd5b81019080803573ffffffffffffffffffffffffffffffffffffffff16906020019092919080351515906020019092919050505061264b565b005b348015610bd657600080fd5b50610cda60048036036080811015610bed57600080fd5b81019080803573ffffffffffffffffffffffffffffffffffffffff169060200190929190803573ffffffffffffffffffffffffffffffffffffffff1690602001909291908035906020019092919080359060200190640100000000811115610c5457600080fd5b820183602082011115610c6657600080fd5b80359060200191846001830284011164010000000083111715610c8857600080fd5b91908080601f016020809104026020016040519081016040528093929190818152602001838380828437600081840152601f19601f820116905080830192505050505050509192919290505050612801565b005b348015610ce857600080fd5b50610d1560048036036020811015610cff57600080fd5b8101908080359060200190929190505050612879565b005b348015610d2357600080fd5b50610d5060048036036020811015610d3a57600080fd5b8101908080359060200190929190505050612b41565b6040518080602001828103825283818151815260200191508051906020019080838360005b83811015610d90578082015181840152602081019050610d75565b50505050905090810190601f168015610dbd5780820380516001836020036101000a031916815260200191505b509250505060405180910390f35b348015610dd757600080fd5b50610e0460048036036020811015610dee57600080fd5b8101908080359060200190929190505050612e12565b60405180821515815260200191505060405180910390f35b348015610e2857600080fd5b50610e5560048036036020811015610e3f57600080fd5b8101908080359060200190929190505050612e32565b604051808873ffffffffffffffffffffffffffffffffffffffff1681526020018781526020018681526020018581526020018481526020018373ffffffffffffffffffffffffffffffffffffffff168152602001821515815260200197505050505050505060405180910390f35b348015610ecf57600080fd5b50610f3260048036036040811015610ee657600080fd5b81019080803573ffffffffffffffffffffffffffffffffffffffff169060200190929190803573ffffffffffffffffffffffffffffffffffffffff169060200190929190505050612ec1565b60405180821515815260200191505060405180910390f35b6000806000837bffffffffffffffffffffffffffffffffffffffffffffffffffffffff19167bffffffffffffffffffffffffffffffffffffffffffffffffffffffff1916815260200190815260200160002060009054906101000a900460ff169050919050565b606060068054600181600116156101000203166002900480601f0160208091040260200160405190810160405280929190818152602001828054600181600116156101000203166002900480156110495780601f1061101e57610100808354040283529160200191611049565b820191906000526020600020905b81548152906001019060200180831161102c57829003601f168201915b5050505050905090565b600061105e82612f55565b6110b3576040517f08c379a000000000000000000000000000000000000000000000000000000000815260040180806020018281038252602c815260200180614486602c913960400191505060405180910390fd5b6004600083815260200190815260200160002060009054906101000a900473ffffffffffffffffffffffffffffffffffffffff169050919050565b60006110f982611cd6565b90508073ffffffffffffffffffffffffffffffffffffffff168373ffffffffffffffffffffffffffffffffffffffff161415611180576040517f08c379a000000000000000000000000000000000000000000000000000000000815260040180806020018281038252602181526020018061450a6021913960400191505060405180910390fd5b8073ffffffffffffffffffffffffffffffffffffffff1661119f612f72565b73ffffffffffffffffffffffffffffffffffffffff1614806111ce57506111cd816111c8612f72565b612ec1565b5b611223576040517f08c379a00000000000000000000000000000000000000000000000000000000081526004018080602001828103825260388152602001806143b16038913960400191505060405180910390fd5b61122d8383612f7a565b505050565b600c818154811061124257600080fd5b9060005260206000209060020201600091509050806000018054600181600116156101000203166002900480601f0160208091040260200160405190810160405280929190818152602001828054600181600116156101000203166002900480156112ee5780601f106112c3576101008083540402835291602001916112ee565b820191906000526020600020905b8154815290600101906020018083116112d157829003601f168201915b505050505090806001018054600181600116156101000203166002900480601f01602080910402602001604051908101604052809291908181526020018280546001816001161561010002031660029004801561138c5780601f106113615761010080835404028352916020019161138c565b820191906000526020600020905b81548152906001019060200180831161136f57829003601f168201915b5050505050905082565b600080600e60003373ffffffffffffffffffffffffffffffffffffffff1673ffffffffffffffffffffffffffffffffffffffff16815260200190815260200160002054905060008111156114b1576000600e60003373ffffffffffffffffffffffffffffffffffffffff1673ffffffffffffffffffffffffffffffffffffffff168152602001908152602001600020819055503373ffffffffffffffffffffffffffffffffffffffff166108fc829081150290604051600060405180830381858888f193505050506114b05780600e60003373ffffffffffffffffffffffffffffffffffffffff1673ffffffffffffffffffffffffffffffffffffffff1681526020019081526020016000208190555060009150506114b7565b5b60019150505b90565b60006114c66002613033565b905090565b6114dc6114d6612f72565b82613048565b611531576040517f08c379a00000000000000000000000000000000000000000000000000000000081526004018080602001828103825260318152602001806145586031913960400191505060405180910390fd5b61153c83838361313c565b505050565b600e6020528060005260406000206000915090505481565b42600d60008381526020019081526020016000206003015410156115e5576040517f08c379a000000000000000000000000000000000000000000000000000000000815260040180806020018281038252601d8152602001807f41756374696f6e206973206e6f742061637469766520616e796d6f726500000081525060200191505060405180910390fd5b34600d60008381526020019081526020016000206004015410611653576040517f08c379a000000000000000000000000000000000000000000000000000000000815260040180806020018281038252602f815260200180614294602f913960400191505060405180910390fd5b600d600082815260200190815260200160002060050160149054906101000a900460ff16156116cd576040517f08c379a000000000000000000000000000000000000000000000000000000000815260040180806020018281038252602b815260200180614309602b913960400191505060405180910390fd5b6000600d60008381526020019081526020016000209050600f5481600401541115611768578060040154600e60008360050160009054906101000a900473ffffffffffffffffffffffffffffffffffffffff1673ffffffffffffffffffffffffffffffffffffffff1673ffffffffffffffffffffffffffffffffffffffff168152602001908152602001600020600082825401925050819055505b348160040181905550338160050160006101000a81548173ffffffffffffffffffffffffffffffffffffffff021916908373ffffffffffffffffffffffffffffffffffffffff1602179055507ff9008dd91005935024ba5a41d46d0e6b9da928da99a364a8db10ea053f6b49c9823433604051808481526020018381526020018273ffffffffffffffffffffffffffffffffffffffff168152602001935050505060405180910390a15050565b600061186882600160008673ffffffffffffffffffffffffffffffffffffffff1673ffffffffffffffffffffffffffffffffffffffff16815260200190815260200160002061337f90919063ffffffff16565b905092915050565b61188b83838360405180602001604052806000815250612801565b505050565b83600a600082815260200190815260200160002060009054906101000a900473ffffffffffffffffffffffffffffffffffffffff1673ffffffffffffffffffffffffffffffffffffffff163373ffffffffffffffffffffffffffffffffffffffff1614611948576040517f08c379a000000000000000000000000000000000000000000000000000000000815260040180806020018281038252603d8152602001806145b0603d913960400191505060405180910390fd5b6000600d600087815260200190815260200160002060020154146119b7576040517f08c379a000000000000000000000000000000000000000000000000000000000815260040180806020018281038252602b815260200180614386602b913960400191505060405180910390fd5b828410611a0f576040517f08c379a00000000000000000000000000000000000000000000000000000000081526004018080602001828103825260228152602001806142c36022913960400191505060405180910390fd5b600f54821015611a6a576040517f08c379a000000000000000000000000000000000000000000000000000000000815260040180806020018281038252602881526020018061443c6028913960400191505060405180910390fd5b428411611ac2576040517f08c379a00000000000000000000000000000000000000000000000000000000081526004018080602001828103825260278152602001806145896027913960400191505060405180910390fd5b60006040518060e001604052803373ffffffffffffffffffffffffffffffffffffffff1681526020018781526020018681526020018581526020018481526020013373ffffffffffffffffffffffffffffffffffffffff16815260200160001515815250905080600d600088815260200190815260200160002060008201518160000160006101000a81548173ffffffffffffffffffffffffffffffffffffffff021916908373ffffffffffffffffffffffffffffffffffffffff1602179055506020820151816001015560408201518160020155606082015181600301556080820151816004015560a08201518160050160006101000a81548173ffffffffffffffffffffffffffffffffffffffff021916908373ffffffffffffffffffffffffffffffffffffffff16021790555060c08201518160050160146101000a81548160ff021916908315150217905550905050611c2033308861313c565b7febc6e332a2c695c53d77b2922a18bcf3ab024549f5f2bfa67e0875ec29d59d46338787878733604051808773ffffffffffffffffffffffffffffffffffffffff1681526020018681526020018581526020018481526020018381526020018273ffffffffffffffffffffffffffffffffffffffff168152602001965050505050505060405180910390a1505050505050565b600080611cca83600261339990919063ffffffff16565b50905080915050919050565b6000611d06826040518060600160405280602981526020016144136029913960026133c59092919063ffffffff16565b9050919050565b606060098054600181600116156101000203166002900480601f016020809104026020016040519081016040528092919081815260200182805460018160011615610100020316600290048015611da55780601f10611d7a57610100808354040283529160200191611da5565b820191906000526020600020905b815481529060010190602001808311611d8857829003601f168201915b5050505050905090565b60008073ffffffffffffffffffffffffffffffffffffffff168273ffffffffffffffffffffffffffffffffffffffff161415611e36576040517f08c379a000000000000000000000000000000000000000000000000000000000815260040180806020018281038252602a8152602001806143e9602a913960400191505060405180910390fd5b611e7d600160008473ffffffffffffffffffffffffffffffffffffffff1673ffffffffffffffffffffffffffffffffffffffff1681526020019081526020016000206133e4565b9050919050565b600f5481565b600b60008383604051602001808060200180602001838103835285818151815260200191508051906020019080838360005b83811015611ed7578082015181840152602081019050611ebc565b50505050905090810190601f168015611f045780820380516001836020036101000a031916815260200191505b50838103825284818151815260200191508051906020019080838360005b83811015611f3d578082015181840152602081019050611f22565b50505050905090810190601f168015611f6a5780820380516001836020036101000a031916815260200191505b5094505050505060405160208183030381529060405280519060200120815260200190815260200160002060009054906101000a900460ff1615611ff9576040517f08c379a000000000000000000000000000000000000000000000000000000000815260040180806020018281038252602d81526020018061452b602d913960400191505060405180910390fd5b604051602001808060200182810382526000815260200191505060405160208183030381529060405280519060200120826040516020018080602001828103825283818151815260200191508051906020019080838360005b8381101561206d578082015181840152602081019050612052565b50505050905090810190601f16801561209a5780820380516001836020036101000a031916815260200191505b5092505050604051602081830303815290604052805190602001201415612129576040517f08c379a000000000000000000000000000000000000000000000000000000000815260040180806020018281038252601d8152602001807f54686520636f6c6f722073686f756c64206e6f7420626520656d70747900000081525060200191505060405180910390fd5b604051602001808060200182810382526000815260200191505060405160208183030381529060405280519060200120816040516020018080602001828103825283818151815260200191508051906020019080838360005b8381101561219d578082015181840152602081019050612182565b50505050905090810190601f1680156121ca5780820380516001836020036101000a031916815260200191505b5092505050604051602081830303815290604052805190602001201415612259576040517f08c379a000000000000000000000000000000000000000000000000000000000815260040180806020018281038252601c8152602001807f5468652068696c742073686f756c64206e6f7420626520656d7074790000000081525060200191505060405180910390fd5b600c604051806040016040528084815260200183815250908060018154018082558091505060019003906000526020600020906002020160009091909190915060008201518160000190805190602001906122b5929190614194565b5060208201518160010190805190602001906122d2929190614194565b50505060006001600c805490500390506122ec33826133f9565b33600a600083815260200190815260200160002060006101000a81548173ffffffffffffffffffffffffffffffffffffffff021916908373ffffffffffffffffffffffffffffffffffffffff16021790555060008383604051602001808060200180602001838103835285818151815260200191508051906020019080838360005b8381101561238957808201518184015260208101905061236e565b50505050905090810190601f1680156123b65780820380516001836020036101000a031916815260200191505b50838103825284818151815260200191508051906020019080838360005b838110156123ef5780820151818401526020810190506123d4565b50505050905090810190601f16801561241c5780820380516001836020036101000a031916815260200191505b509450505050506040516020818303038152906040528051906020012090506001600b600083815260200190815260200160002060006101000a81548160ff0219169083151502179055507fffefbf8362f48a1f86dfe5f46d3d28ae3692d22f2a11b4341bb7b10e8c9b54c78484604051808060200180602001838103835285818151815260200191508051906020019080838360005b838110156124ce5780820151818401526020810190506124b3565b50505050905090810190601f1680156124fb5780820380516001836020036101000a031916815260200191505b50838103825284818151815260200191508051906020019080838360005b83811015612534578082015181840152602081019050612519565b50505050905090810190601f1680156125615780820380516001836020036101000a031916815260200191505b5094505050505060405180910390a150505050565b606060078054600181600116156101000203166002900480601f01602080910402602001604051908101604052809291908181526020018280546001816001161561010002031660029004801561260e5780601f106125e35761010080835404028352916020019161260e565b820191906000526020600020905b8154815290600101906020018083116125f157829003601f168201915b5050505050905090565b600a6020528060005260406000206000915054906101000a900473ffffffffffffffffffffffffffffffffffffffff1681565b612653612f72565b73ffffffffffffffffffffffffffffffffffffffff168273ffffffffffffffffffffffffffffffffffffffff1614156126f4576040517f08c379a00000000000000000000000000000000000000000000000000000000081526004018080602001828103825260198152602001807f4552433732313a20617070726f766520746f2063616c6c65720000000000000081525060200191505060405180910390fd5b8060056000612701612f72565b73ffffffffffffffffffffffffffffffffffffffff1673ffffffffffffffffffffffffffffffffffffffff16815260200190815260200160002060008473ffffffffffffffffffffffffffffffffffffffff1673ffffffffffffffffffffffffffffffffffffffff16815260200190815260200160002060006101000a81548160ff0219169083151502179055508173ffffffffffffffffffffffffffffffffffffffff166127ae612f72565b73ffffffffffffffffffffffffffffffffffffffff167f17307eab39ab6107e8899845ad3d59bd9653f200f220920489ca2b5937696c318360405180821515815260200191505060405180910390a35050565b61281261280c612f72565b83613048565b612867576040517f08c379a00000000000000000000000000000000000000000000000000000000081526004018080602001828103825260318152602001806145586031913960400191505060405180910390fd5b612873848484846135ed565b50505050565b80600a600082815260200190815260200160002060009054906101000a900473ffffffffffffffffffffffffffffffffffffffff1673ffffffffffffffffffffffffffffffffffffffff163373ffffffffffffffffffffffffffffffffffffffff1614612931576040517f08c379a000000000000000000000000000000000000000000000000000000000815260040180806020018281038252603d8152602001806145b0603d913960400191505060405180910390fd5b6000600d600084815260200190815260200160002060020154116129bd576040517f08c379a00000000000000000000000000000000000000000000000000000000081526004018080602001828103825260168152602001807f41756374696f6e20646f6573206e6f742065786973740000000000000000000081525060200191505060405180910390fd5b600d600083815260200190815260200160002060050160149054906101000a900460ff1615612a54576040517f08c379a00000000000000000000000000000000000000000000000000000000081526004018080602001828103825260198152602001807f41756374696f6e2068617320616c726561647920656e6465640000000000000081525060200191505060405180910390fd5b6000600d60008481526020019081526020016000209050612a9a308260050160009054906101000a900473ffffffffffffffffffffffffffffffffffffffff168561313c565b60018160050160146101000a81548160ff0219169083151502179055507fbafc4bda865d4d1f8d5b16f883e996fde0fe71112fac81503876d353756944008382600401548360050160009054906101000a900473ffffffffffffffffffffffffffffffffffffffff16604051808481526020018381526020018273ffffffffffffffffffffffffffffffffffffffff168152602001935050505060405180910390a1505050565b6060612b4c82612f55565b612ba1576040517f08c379a000000000000000000000000000000000000000000000000000000000815260040180806020018281038252602f8152602001806144db602f913960400191505060405180910390fd5b6000600860008481526020019081526020016000208054600181600116156101000203166002900480601f016020809104026020016040519081016040528092919081815260200182805460018160011615610100020316600290048015612c4a5780601f10612c1f57610100808354040283529160200191612c4a565b820191906000526020600020905b815481529060010190602001808311612c2d57829003601f168201915b505050505090506000612c5b611d0d565b9050600081511415612c71578192505050612e0d565b600082511115612d425780826040516020018083805190602001908083835b60208310612cb35780518252602082019150602081019050602083039250612c90565b6001836020036101000a03801982511681845116808217855250505050505090500182805190602001908083835b60208310612d045780518252602082019150602081019050602083039250612ce1565b6001836020036101000a0380198251168184511680821785525050505050509050019250505060405160208183030381529060405292505050612e0d565b80612d4c8561365f565b6040516020018083805190602001908083835b60208310612d825780518252602082019150602081019050602083039250612d5f565b6001836020036101000a03801982511681845116808217855250505050505090500182805190602001908083835b60208310612dd35780518252602082019150602081019050602083039250612db0565b6001836020036101000a03801982511681845116808217855250505050505090500192505050604051602081830303815290604052925050505b919050565b600b6020528060005260406000206000915054906101000a900460ff1681565b600d6020528060005260406000206000915090508060000160009054906101000a900473ffffffffffffffffffffffffffffffffffffffff16908060010154908060020154908060030154908060040154908060050160009054906101000a900473ffffffffffffffffffffffffffffffffffffffff16908060050160149054906101000a900460ff16905087565b6000600560008473ffffffffffffffffffffffffffffffffffffffff1673ffffffffffffffffffffffffffffffffffffffff16815260200190815260200160002060008373ffffffffffffffffffffffffffffffffffffffff1673ffffffffffffffffffffffffffffffffffffffff16815260200190815260200160002060009054906101000a900460ff16905092915050565b6000612f6b8260026137a690919063ffffffff16565b9050919050565b600033905090565b816004600083815260200190815260200160002060006101000a81548173ffffffffffffffffffffffffffffffffffffffff021916908373ffffffffffffffffffffffffffffffffffffffff160217905550808273ffffffffffffffffffffffffffffffffffffffff16612fed83611cd6565b73ffffffffffffffffffffffffffffffffffffffff167f8c5be1e5ebec7d5bd14f71427d1e84f3dd0314c0f7b2291e5b200ac8c7c3b92560405160405180910390a45050565b6000613041826000016137c0565b9050919050565b600061305382612f55565b6130a8576040517f08c379a000000000000000000000000000000000000000000000000000000000815260040180806020018281038252602c81526020018061435a602c913960400191505060405180910390fd5b60006130b383611cd6565b90508073ffffffffffffffffffffffffffffffffffffffff168473ffffffffffffffffffffffffffffffffffffffff16148061312257508373ffffffffffffffffffffffffffffffffffffffff1661310a84611053565b73ffffffffffffffffffffffffffffffffffffffff16145b8061313357506131328185612ec1565b5b91505092915050565b8273ffffffffffffffffffffffffffffffffffffffff1661315c82611cd6565b73ffffffffffffffffffffffffffffffffffffffff16146131c8576040517f08c379a00000000000000000000000000000000000000000000000000000000081526004018080602001828103825260298152602001806144b26029913960400191505060405180910390fd5b600073ffffffffffffffffffffffffffffffffffffffff168273ffffffffffffffffffffffffffffffffffffffff16141561324e576040517f08c379a00000000000000000000000000000000000000000000000000000000081526004018080602001828103825260248152602001806142e56024913960400191505060405180910390fd5b6132598383836137d1565b613264600082612f7a565b6132b581600160008673ffffffffffffffffffffffffffffffffffffffff1673ffffffffffffffffffffffffffffffffffffffff1681526020019081526020016000206137d690919063ffffffff16565b5061330781600160008573ffffffffffffffffffffffffffffffffffffffff1673ffffffffffffffffffffffffffffffffffffffff1681526020019081526020016000206137f090919063ffffffff16565b5061331e8183600261380a9092919063ffffffff16565b50808273ffffffffffffffffffffffffffffffffffffffff168473ffffffffffffffffffffffffffffffffffffffff167fddf252ad1be2c89b69c2b068fc378daa952ba7f163c4a11628f55a4df523b3ef60405160405180910390a4505050565b600061338e836000018361383f565b60001c905092915050565b6000806000806133ac86600001866138c2565b915091508160001c8160001c9350935050509250929050565b60006133d8846000018460001b8461395b565b60001c90509392505050565b60006133f282600001613a51565b9050919050565b600073ffffffffffffffffffffffffffffffffffffffff168273ffffffffffffffffffffffffffffffffffffffff16141561349c576040517f08c379a00000000000000000000000000000000000000000000000000000000081526004018080602001828103825260208152602001807f4552433732313a206d696e7420746f20746865207a65726f206164647265737381525060200191505060405180910390fd5b6134a581612f55565b15613518576040517f08c379a000000000000000000000000000000000000000000000000000000000815260040180806020018281038252601c8152602001807f4552433732313a20746f6b656e20616c7265616479206d696e7465640000000081525060200191505060405180910390fd5b613524600083836137d1565b61357581600160008573ffffffffffffffffffffffffffffffffffffffff1673ffffffffffffffffffffffffffffffffffffffff1681526020019081526020016000206137f090919063ffffffff16565b5061358c8183600261380a9092919063ffffffff16565b50808273ffffffffffffffffffffffffffffffffffffffff16600073ffffffffffffffffffffffffffffffffffffffff167fddf252ad1be2c89b69c2b068fc378daa952ba7f163c4a11628f55a4df523b3ef60405160405180910390a45050565b6135f884848461313c565b61360484848484613a62565b613659576040517f08c379a00000000000000000000000000000000000000000000000000000000081526004018080602001828103825260328152602001806142626032913960400191505060405180910390fd5b50505050565b606060008214156136a7576040518060400160405280600181526020017f300000000000000000000000000000000000000000000000000000000000000081525090506137a1565b600082905060005b600082146136d1578080600101915050600a82816136c957fe5b0491506136af565b60008167ffffffffffffffff811180156136ea57600080fd5b506040519080825280601f01601f19166020018201604052801561371d5781602001600182028036833780820191505090505b50905060006001830390508593505b6000841461379957600a848161373e57fe5b0660300160f81b8282806001900393508151811061375857fe5b60200101907effffffffffffffffffffffffffffffffffffffffffffffffffffffffffffff1916908160001a905350600a848161379157fe5b04935061372c565b819450505050505b919050565b60006137b8836000018360001b613c7b565b905092915050565b600081600001805490509050919050565b505050565b60006137e8836000018360001b613c9e565b905092915050565b6000613802836000018360001b613d86565b905092915050565b6000613836846000018460001b8473ffffffffffffffffffffffffffffffffffffffff1660001b613df6565b90509392505050565b6000818360000180549050116138a0576040517f08c379a00000000000000000000000000000000000000000000000000000000081526004018080602001828103825260228152602001806142406022913960400191505060405180910390fd5b8260000182815481106138af57fe5b9060005260206000200154905092915050565b60008082846000018054905011613924576040517f08c379a00000000000000000000000000000000000000000000000000000000081526004018080602001828103825260228152602001806144646022913960400191505060405180910390fd5b600084600001848154811061393557fe5b906000526020600020906002020190508060000154816001015492509250509250929050565b60008084600101600085815260200190815260200160002054905060008114158390613a22576040517f08c379a00000000000000000000000000000000000000000000000000000000081526004018080602001828103825283818151815260200191508051906020019080838360005b838110156139e75780820151818401526020810190506139cc565b50505050905090810190601f168015613a145780820380516001836020036101000a031916815260200191505b509250505060405180910390fd5b50846000016001820381548110613a3557fe5b9060005260206000209060020201600101549150509392505050565b600081600001805490509050919050565b6000613a838473ffffffffffffffffffffffffffffffffffffffff16613ed2565b613a905760019050613c73565b6000613bfa63150b7a0260e01b613aa5612f72565b888787604051602401808573ffffffffffffffffffffffffffffffffffffffff1681526020018473ffffffffffffffffffffffffffffffffffffffff16815260200183815260200180602001828103825283818151815260200191508051906020019080838360005b83811015613b29578082015181840152602081019050613b0e565b50505050905090810190601f168015613b565780820380516001836020036101000a031916815260200191505b5095505050505050604051602081830303815290604052907bffffffffffffffffffffffffffffffffffffffffffffffffffffffff19166020820180517bffffffffffffffffffffffffffffffffffffffffffffffffffffffff8381831617835250505050604051806060016040528060328152602001614262603291398773ffffffffffffffffffffffffffffffffffffffff16613ee59092919063ffffffff16565b90506000818060200190516020811015613c1357600080fd5b8101908080519060200190929190505050905063150b7a0260e01b7bffffffffffffffffffffffffffffffffffffffffffffffffffffffff1916817bffffffffffffffffffffffffffffffffffffffffffffffffffffffff191614925050505b949350505050565b600080836001016000848152602001908152602001600020541415905092915050565b60008083600101600084815260200190815260200160002054905060008114613d7a5760006001820390506000600186600001805490500390506000866000018281548110613ce957fe5b9060005260206000200154905080876000018481548110613d0657fe5b9060005260206000200181905550600183018760010160008381526020019081526020016000208190555086600001805480613d3e57fe5b60019003818190600052602060002001600090559055866001016000878152602001908152602001600020600090556001945050505050613d80565b60009150505b92915050565b6000613d928383613efd565b613deb578260000182908060018154018082558091505060019003906000526020600020016000909190919091505582600001805490508360010160008481526020019081526020016000208190555060019050613df0565b600090505b92915050565b6000808460010160008581526020019081526020016000205490506000811415613e9d57846000016040518060400160405280868152602001858152509080600181540180825580915050600190039060005260206000209060020201600090919091909150600082015181600001556020820151816001015550508460000180549050856001016000868152602001908152602001600020819055506001915050613ecb565b82856000016001830381548110613eb057fe5b90600052602060002090600202016001018190555060009150505b9392505050565b600080823b905060008111915050919050565b6060613ef48484600085613f20565b90509392505050565b600080836001016000848152602001908152602001600020541415905092915050565b606082471015613f7b576040517f08c379a00000000000000000000000000000000000000000000000000000000081526004018080602001828103825260268152602001806143346026913960400191505060405180910390fd5b613f8485613ed2565b613ff6576040517f08c379a000000000000000000000000000000000000000000000000000000000815260040180806020018281038252601d8152602001807f416464726573733a2063616c6c20746f206e6f6e2d636f6e747261637400000081525060200191505060405180910390fd5b6000808673ffffffffffffffffffffffffffffffffffffffff1685876040518082805190602001908083835b602083106140455780518252602082019150602081019050602083039250614022565b6001836020036101000a03801982511681845116808217855250505050505090500191505060006040518083038185875af1925050503d80600081146140a7576040519150601f19603f3d011682016040523d82523d6000602084013e6140ac565b606091505b50915091506140bc8282866140c8565b92505050949350505050565b606083156140d85782905061418d565b6000835111156140eb5782518084602001fd5b816040517f08c379a00000000000000000000000000000000000000000000000000000000081526004018080602001828103825283818151815260200191508051906020019080838360005b83811015614152578082015181840152602081019050614137565b50505050905090810190601f16801561417f5780820380516001836020036101000a031916815260200191505b509250505060405180910390fd5b9392505050565b828054600181600116156101000203166002900490600052602060002090601f0160209004810192826141ca5760008555614211565b82601f106141e357805160ff1916838001178555614211565b82800160010185558215614211579182015b828111156142105782518255916020019190600101906141f5565b5b50905061421e9190614222565b5090565b5b8082111561423b576000816000905550600101614223565b509056fe456e756d657261626c655365743a20696e646578206f7574206f6620626f756e64734552433732313a207472616e7366657220746f206e6f6e20455243373231526563656976657220696d706c656d656e74657254686520626964206d75737420626520686967686572207468616e207468652061756374696f6e277320707269636553746172742064617465206d757374206265206265666f726520656e6420646174654552433732313a207472616e7366657220746f20746865207a65726f2061646472657373596f752063616e6e6f7420626964206f6e20616e2061756374696f6e20746861742068617320656e646564416464726573733a20696e73756666696369656e742062616c616e636520666f722063616c6c4552433732313a206f70657261746f7220717565727920666f72206e6f6e6578697374656e7420746f6b656e416e2061756374696f6e20616c72656164792065786973747320666f72207468697320746f6b656e2069644552433732313a20617070726f76652063616c6c6572206973206e6f74206f776e6572206e6f7220617070726f76656420666f7220616c6c4552433732313a2062616c616e636520717565727920666f7220746865207a65726f20616464726573734552433732313a206f776e657220717565727920666f72206e6f6e6578697374656e7420746f6b656e5468652070726963652073686f756c64206265206174206c6561737420302e303031206574686572456e756d657261626c654d61703a20696e646578206f7574206f6620626f756e64734552433732313a20617070726f76656420717565727920666f72206e6f6e6578697374656e7420746f6b656e4552433732313a207472616e73666572206f6620746f6b656e2074686174206973206e6f74206f776e4552433732314d657461646174613a2055524920717565727920666f72206e6f6e6578697374656e7420746f6b656e4552433732313a20617070726f76616c20746f2063757272656e74206f776e65725468697320636f6d62696e6174696f6e2063616e6e6f74206578697374206d6f7265207468616e206f6e63652e4552433732313a207472616e736665722063616c6c6572206973206e6f74206f776e6572206e6f7220617070726f76656454686520616374696f6e2073686f756c64206e6f7420737461727420696e2074686520706173744f6e6c7920746865206f776e6572206f6620746865206c69676874736162657220746f6b656e2063616e2063616c6c20746869732066756e6374696f6ea2646970667358221220bf82a8b534f4351a12c2969a568481586e2caa9fca6e231fbf81e0019bd9610164736f6c63430007060033",
  "immutableReferences": {},
  "source": "// SPDX-License-Identifier: MIT\r\npragma solidity ^0.7.6;\r\n\r\nimport \"./LightsaberForge.sol\";\r\n\r\ncontract LightsaberAuction is LightsaberForge {\r\n    event AuctionCreated(\r\n        address owner,\r\n        uint256 tokenId,\r\n        uint256 startDate,\r\n        uint256 endDate,\r\n        uint256 highestBid,\r\n        address highestBidder\r\n    );\r\n    event AuctionBid(uint256 tokenId, uint256 highestBid, address highestBidder);\r\n    event AuctionEnded(uint256 tokenId, uint256 highestBid, address highestBidder);\r\n\r\n    struct Auction {\r\n        address owner;\r\n        uint256 tokenId;\r\n        uint256 startDate;\r\n        uint256 endDate;\r\n        uint256 highestBid;\r\n        address highestBidder;\r\n        bool ended;\r\n    }\r\n\r\n    mapping(uint256 => Auction) public tokenIdToAuction;\r\n    mapping(address => uint256) public pendingReturns;\r\n\r\n    uint256 public minimumPrice = 0.0001 ether;\r\n\r\n    modifier onlyOwner(uint256 _tokenId) {\r\n        require(msg.sender == lightsaberToOwner[_tokenId], \"Only the owner of the lightsaber token can call this function\");\r\n        _;\r\n    }\r\n\r\n    function createAuction(uint256 _tokenId, uint256 _startDate, uint256 _endDate, uint256 _highestBid) public onlyOwner(_tokenId) {\r\n        require(tokenIdToAuction[_tokenId].startDate == 0, \"An auction already exists for this token id\");\r\n        require(_startDate < _endDate, \"Start date must be before end date\");\r\n        require(_highestBid >= minimumPrice, \"The price should be at least 0.001 ether\");\r\n        require(_startDate > block.timestamp, \"The action should not start in the past\");\r\n        Auction memory auction = Auction(msg.sender, _tokenId, _startDate, _endDate, _highestBid, msg.sender, false);\r\n        tokenIdToAuction[_tokenId] = auction;\r\n\r\n        //send the token to the smart contract\r\n        _transfer(msg.sender, address(this), _tokenId);    \r\n        emit AuctionCreated(msg.sender, _tokenId, _startDate, _endDate, _highestBid, msg.sender);\r\n    }\r\n\r\n    function bidOnAuction(uint256 _tokenId) public payable {\r\n        require(tokenIdToAuction[_tokenId].endDate >= block.timestamp, \"Auction is not active anymore\");\r\n        require(tokenIdToAuction[_tokenId].highestBid < msg.value, \"The bid must be higher than the auction's price\");\r\n        require(!tokenIdToAuction[_tokenId].ended, \"You cannot bid on an auction that has ended\");\r\n        Auction storage auction = tokenIdToAuction[_tokenId];\r\n\r\n        //solidity documentation\r\n        if (auction.highestBid > minimumPrice) {\r\n            pendingReturns[auction.highestBidder] += auction.highestBid;\r\n        }\r\n\r\n        //update auction properties\r\n        auction.highestBid = msg.value;\r\n        auction.highestBidder = msg.sender;\r\n\r\n        emit AuctionBid(_tokenId, msg.value, msg.sender);\r\n    }\r\n\r\n    function withdrawAnOverbidBid() public returns (bool) {\r\n        uint256 amount = pendingReturns[msg.sender];\r\n        if (amount > 0) {\r\n            pendingReturns[msg.sender] = 0;\r\n            //we try to send the amount back and if it fails just reset the pendingReturns for the sender\r\n            if (!payable(msg.sender).send(amount)) {\r\n                pendingReturns[msg.sender] = amount;\r\n                return false;\r\n            }\r\n        }\r\n        return true;\r\n    }\r\n\r\n    function endAuction(uint256 _tokenId) public onlyOwner(_tokenId) {\r\n        require(tokenIdToAuction[_tokenId].startDate > 0, \"Auction does not exist\");\r\n        require(!tokenIdToAuction[_tokenId].ended, \"Auction has already ended\");\r\n        Auction storage auction = tokenIdToAuction[_tokenId];\r\n        _transfer(address(this), auction.highestBidder, _tokenId);\r\n        auction.ended = true;\r\n        emit AuctionEnded(_tokenId, auction.highestBid, auction.highestBidder);\r\n    }\r\n}\r\n",
  "sourcePath": "C:/Users/Metodi/Desktop/ProjectsDapp/nft-lightsabers/contracts/LightsaberAuction.sol",
  "compiler": {
    "name": "solc",
    "version": "0.7.6+commit.7338295f.Emscripten.clang"
  },
  "schemaVersion": "3.3.4",
  "updatedAt": "2021-03-12T18:41:34.753Z",
  "networkType": "ethereum",
  "devdoc": {
    "kind": "dev",
    "methods": {
      "approve(address,uint256)": {
        "details": "See {IERC721-approve}."
      },
      "balanceOf(address)": {
        "details": "See {IERC721-balanceOf}."
      },
      "baseURI()": {
        "details": "Returns the base URI set via {_setBaseURI}. This will be automatically added as a prefix in {tokenURI} to each token's URI, or to the token ID if no specific URI is set for that token ID."
      },
      "getApproved(uint256)": {
        "details": "See {IERC721-getApproved}."
      },
      "isApprovedForAll(address,address)": {
        "details": "See {IERC721-isApprovedForAll}."
      },
      "name()": {
        "details": "See {IERC721Metadata-name}."
      },
      "ownerOf(uint256)": {
        "details": "See {IERC721-ownerOf}."
      },
      "safeTransferFrom(address,address,uint256)": {
        "details": "See {IERC721-safeTransferFrom}."
      },
      "safeTransferFrom(address,address,uint256,bytes)": {
        "details": "See {IERC721-safeTransferFrom}."
      },
      "setApprovalForAll(address,bool)": {
        "details": "See {IERC721-setApprovalForAll}."
      },
      "supportsInterface(bytes4)": {
        "details": "See {IERC165-supportsInterface}. Time complexity O(1), guaranteed to always use less than 30 000 gas."
      },
      "symbol()": {
        "details": "See {IERC721Metadata-symbol}."
      },
      "tokenByIndex(uint256)": {
        "details": "See {IERC721Enumerable-tokenByIndex}."
      },
      "tokenOfOwnerByIndex(address,uint256)": {
        "details": "See {IERC721Enumerable-tokenOfOwnerByIndex}."
      },
      "tokenURI(uint256)": {
        "details": "See {IERC721Metadata-tokenURI}."
      },
      "totalSupply()": {
        "details": "See {IERC721Enumerable-totalSupply}."
      },
      "transferFrom(address,address,uint256)": {
        "details": "See {IERC721-transferFrom}."
      }
    },
    "version": 1
  },
  "userdoc": {
    "kind": "user",
    "methods": {},
    "version": 1
  }
}