{
  "contractName": "LightsaberForge",
  "abi": [
    {
      "inputs": [],
      "stateMutability": "nonpayable",
      "type": "constructor"
    },
    {
      "anonymous": false,
      "inputs": [
        {
          "indexed": true,
          "internalType": "address",
          "name": "owner",
          "type": "address"
        },
        {
          "indexed": true,
          "internalType": "address",
          "name": "approved",
          "type": "address"
        },
        {
          "indexed": true,
          "internalType": "uint256",
          "name": "tokenId",
          "type": "uint256"
        }
      ],
      "name": "Approval",
      "type": "event"
    },
    {
      "anonymous": false,
      "inputs": [
        {
          "indexed": true,
          "internalType": "address",
          "name": "owner",
          "type": "address"
        },
        {
          "indexed": true,
          "internalType": "address",
          "name": "operator",
          "type": "address"
        },
        {
          "indexed": false,
          "internalType": "bool",
          "name": "approved",
          "type": "bool"
        }
      ],
      "name": "ApprovalForAll",
      "type": "event"
    },
    {
      "anonymous": false,
      "inputs": [
        {
          "indexed": false,
          "internalType": "string",
          "name": "colorCrystal",
          "type": "string"
        },
        {
          "indexed": false,
          "internalType": "string",
          "name": "hilt",
          "type": "string"
        }
      ],
      "name": "LightsaberCreated",
      "type": "event"
    },
    {
      "anonymous": false,
      "inputs": [
        {
          "indexed": true,
          "internalType": "address",
          "name": "from",
          "type": "address"
        },
        {
          "indexed": true,
          "internalType": "address",
          "name": "to",
          "type": "address"
        },
        {
          "indexed": true,
          "internalType": "uint256",
          "name": "tokenId",
          "type": "uint256"
        }
      ],
      "name": "Transfer",
      "type": "event"
    },
    {
      "inputs": [
        {
          "internalType": "address",
          "name": "to",
          "type": "address"
        },
        {
          "internalType": "uint256",
          "name": "tokenId",
          "type": "uint256"
        }
      ],
      "name": "approve",
      "outputs": [],
      "stateMutability": "nonpayable",
      "type": "function"
    },
    {
      "inputs": [
        {
          "internalType": "address",
          "name": "owner",
          "type": "address"
        }
      ],
      "name": "balanceOf",
      "outputs": [
        {
          "internalType": "uint256",
          "name": "",
          "type": "uint256"
        }
      ],
      "stateMutability": "view",
      "type": "function"
    },
    {
      "inputs": [],
      "name": "baseURI",
      "outputs": [
        {
          "internalType": "string",
          "name": "",
          "type": "string"
        }
      ],
      "stateMutability": "view",
      "type": "function"
    },
    {
      "inputs": [
        {
          "internalType": "bytes32",
          "name": "",
          "type": "bytes32"
        }
      ],
      "name": "combinationExists",
      "outputs": [
        {
          "internalType": "bool",
          "name": "",
          "type": "bool"
        }
      ],
      "stateMutability": "view",
      "type": "function"
    },
    {
      "inputs": [
        {
          "internalType": "uint256",
          "name": "tokenId",
          "type": "uint256"
        }
      ],
      "name": "getApproved",
      "outputs": [
        {
          "internalType": "address",
          "name": "",
          "type": "address"
        }
      ],
      "stateMutability": "view",
      "type": "function"
    },
    {
      "inputs": [
        {
          "internalType": "address",
          "name": "owner",
          "type": "address"
        },
        {
          "internalType": "address",
          "name": "operator",
          "type": "address"
        }
      ],
      "name": "isApprovedForAll",
      "outputs": [
        {
          "internalType": "bool",
          "name": "",
          "type": "bool"
        }
      ],
      "stateMutability": "view",
      "type": "function"
    },
    {
      "inputs": [
        {
          "internalType": "uint256",
          "name": "",
          "type": "uint256"
        }
      ],
      "name": "lightsaberToOwner",
      "outputs": [
        {
          "internalType": "address",
          "name": "",
          "type": "address"
        }
      ],
      "stateMutability": "view",
      "type": "function"
    },
    {
      "inputs": [
        {
          "internalType": "uint256",
          "name": "",
          "type": "uint256"
        }
      ],
      "name": "lightsabers",
      "outputs": [
        {
          "internalType": "string",
          "name": "colorCrystal",
          "type": "string"
        },
        {
          "internalType": "string",
          "name": "hilt",
          "type": "string"
        }
      ],
      "stateMutability": "view",
      "type": "function"
    },
    {
      "inputs": [],
      "name": "name",
      "outputs": [
        {
          "internalType": "string",
          "name": "",
          "type": "string"
        }
      ],
      "stateMutability": "view",
      "type": "function"
    },
    {
      "inputs": [
        {
          "internalType": "uint256",
          "name": "tokenId",
          "type": "uint256"
        }
      ],
      "name": "ownerOf",
      "outputs": [
        {
          "internalType": "address",
          "name": "",
          "type": "address"
        }
      ],
      "stateMutability": "view",
      "type": "function"
    },
    {
      "inputs": [
        {
          "internalType": "address",
          "name": "from",
          "type": "address"
        },
        {
          "internalType": "address",
          "name": "to",
          "type": "address"
        },
        {
          "internalType": "uint256",
          "name": "tokenId",
          "type": "uint256"
        }
      ],
      "name": "safeTransferFrom",
      "outputs": [],
      "stateMutability": "nonpayable",
      "type": "function"
    },
    {
      "inputs": [
        {
          "internalType": "address",
          "name": "from",
          "type": "address"
        },
        {
          "internalType": "address",
          "name": "to",
          "type": "address"
        },
        {
          "internalType": "uint256",
          "name": "tokenId",
          "type": "uint256"
        },
        {
          "internalType": "bytes",
          "name": "_data",
          "type": "bytes"
        }
      ],
      "name": "safeTransferFrom",
      "outputs": [],
      "stateMutability": "nonpayable",
      "type": "function"
    },
    {
      "inputs": [
        {
          "internalType": "address",
          "name": "operator",
          "type": "address"
        },
        {
          "internalType": "bool",
          "name": "approved",
          "type": "bool"
        }
      ],
      "name": "setApprovalForAll",
      "outputs": [],
      "stateMutability": "nonpayable",
      "type": "function"
    },
    {
      "inputs": [
        {
          "internalType": "bytes4",
          "name": "interfaceId",
          "type": "bytes4"
        }
      ],
      "name": "supportsInterface",
      "outputs": [
        {
          "internalType": "bool",
          "name": "",
          "type": "bool"
        }
      ],
      "stateMutability": "view",
      "type": "function"
    },
    {
      "inputs": [],
      "name": "symbol",
      "outputs": [
        {
          "internalType": "string",
          "name": "",
          "type": "string"
        }
      ],
      "stateMutability": "view",
      "type": "function"
    },
    {
      "inputs": [
        {
          "internalType": "uint256",
          "name": "index",
          "type": "uint256"
        }
      ],
      "name": "tokenByIndex",
      "outputs": [
        {
          "internalType": "uint256",
          "name": "",
          "type": "uint256"
        }
      ],
      "stateMutability": "view",
      "type": "function"
    },
    {
      "inputs": [
        {
          "internalType": "address",
          "name": "owner",
          "type": "address"
        },
        {
          "internalType": "uint256",
          "name": "index",
          "type": "uint256"
        }
      ],
      "name": "tokenOfOwnerByIndex",
      "outputs": [
        {
          "internalType": "uint256",
          "name": "",
          "type": "uint256"
        }
      ],
      "stateMutability": "view",
      "type": "function"
    },
    {
      "inputs": [
        {
          "internalType": "uint256",
          "name": "tokenId",
          "type": "uint256"
        }
      ],
      "name": "tokenURI",
      "outputs": [
        {
          "internalType": "string",
          "name": "",
          "type": "string"
        }
      ],
      "stateMutability": "view",
      "type": "function"
    },
    {
      "inputs": [],
      "name": "totalSupply",
      "outputs": [
        {
          "internalType": "uint256",
          "name": "",
          "type": "uint256"
        }
      ],
      "stateMutability": "view",
      "type": "function"
    },
    {
      "inputs": [
        {
          "internalType": "address",
          "name": "from",
          "type": "address"
        },
        {
          "internalType": "address",
          "name": "to",
          "type": "address"
        },
        {
          "internalType": "uint256",
          "name": "tokenId",
          "type": "uint256"
        }
      ],
      "name": "transferFrom",
      "outputs": [],
      "stateMutability": "nonpayable",
      "type": "function"
    },
    {
      "inputs": [
        {
          "internalType": "string",
          "name": "_colorCrystal",
          "type": "string"
        },
        {
          "internalType": "string",
          "name": "_hilt",
          "type": "string"
        }
      ],
      "name": "mint",
      "outputs": [],
      "stateMutability": "nonpayable",
      "type": "function"
    }
  ],
  "bytecode": "0x60806040523480156200001157600080fd5b506040518060400160405280600f81526020017f4c696768747361626572466f72676500000000000000000000000000000000008152506040518060400160405280600381526020017f4c53460000000000000000000000000000000000000000000000000000000000815250620000966301ffc9a760e01b6200011860201b60201c565b8160069080519060200190620000ae92919062000221565b508060079080519060200190620000c792919062000221565b50620000e06380ac58cd60e01b6200011860201b60201c565b620000f8635b5e139f60e01b6200011860201b60201c565b6200011063780e9d6360e01b6200011860201b60201c565b5050620002d7565b63ffffffff60e01b817bffffffffffffffffffffffffffffffffffffffffffffffffffffffff19161415620001b5576040517f08c379a000000000000000000000000000000000000000000000000000000000815260040180806020018281038252601c8152602001807f4552433136353a20696e76616c696420696e746572666163652069640000000081525060200191505060405180910390fd5b6001600080837bffffffffffffffffffffffffffffffffffffffffffffffffffffffff19167bffffffffffffffffffffffffffffffffffffffffffffffffffffffff1916815260200190815260200160002060006101000a81548160ff02191690831515021790555050565b828054600181600116156101000203166002900490600052602060002090601f016020900481019282620002595760008555620002a5565b82601f106200027457805160ff1916838001178555620002a5565b82800160010185558215620002a5579182015b82811115620002a457825182559160200191906001019062000287565b5b509050620002b49190620002b8565b5090565b5b80821115620002d3576000816000905550600101620002b9565b5090565b6135c080620002e76000396000f3fe608060405234801561001057600080fd5b50600436106101375760003560e01c80636352211e116100b857806396abc4601161007c57806396abc46014610881578063a22cb465146108d9578063b88d4fde14610929578063c87b56dd14610a2e578063cb642ffc14610ad5578063e985e9c514610b1957610137565b80636352211e146105795780636c0360eb146105d157806370a08231146106545780638aa0fdad146106ac57806395d89b41146107fe57610137565b806318160ddd116100ff57806318160ddd146103db57806323b872dd146103f95780632f745c591461046757806342842e0e146104c95780634f6ccce71461053757610137565b806301ffc9a71461013c57806306fdde031461019f578063081812fc14610222578063095ea7b31461027a5780630cae4910146102c8575b600080fd5b6101876004803603602081101561015257600080fd5b8101908080357bffffffffffffffffffffffffffffffffffffffffffffffffffffffff19169060200190929190505050610b93565b60405180821515815260200191505060405180910390f35b6101a7610bfa565b6040518080602001828103825283818151815260200191508051906020019080838360005b838110156101e75780820151818401526020810190506101cc565b50505050905090810190601f1680156102145780820380516001836020036101000a031916815260200191505b509250505060405180910390f35b61024e6004803603602081101561023857600080fd5b8101908080359060200190929190505050610c9c565b604051808273ffffffffffffffffffffffffffffffffffffffff16815260200191505060405180910390f35b6102c66004803603604081101561029057600080fd5b81019080803573ffffffffffffffffffffffffffffffffffffffff16906020019092919080359060200190929190505050610d37565b005b6102f4600480360360208110156102de57600080fd5b8101908080359060200190929190505050610e7b565b604051808060200180602001838103835285818151815260200191508051906020019080838360005b8381101561033857808201518184015260208101905061031d565b50505050905090810190601f1680156103655780820380516001836020036101000a031916815260200191505b50838103825284818151815260200191508051906020019080838360005b8381101561039e578082015181840152602081019050610383565b50505050905090810190601f1680156103cb5780820380516001836020036101000a031916815260200191505b5094505050505060405180910390f35b6103e3610fdf565b6040518082815260200191505060405180910390f35b6104656004803603606081101561040f57600080fd5b81019080803573ffffffffffffffffffffffffffffffffffffffff169060200190929190803573ffffffffffffffffffffffffffffffffffffffff16906020019092919080359060200190929190505050610ff0565b005b6104b36004803603604081101561047d57600080fd5b81019080803573ffffffffffffffffffffffffffffffffffffffff16906020019092919080359060200190929190505050611066565b6040518082815260200191505060405180910390f35b610535600480360360608110156104df57600080fd5b81019080803573ffffffffffffffffffffffffffffffffffffffff169060200190929190803573ffffffffffffffffffffffffffffffffffffffff169060200190929190803590602001909291905050506110c1565b005b6105636004803603602081101561054d57600080fd5b81019080803590602001909291905050506110e1565b6040518082815260200191505060405180910390f35b6105a56004803603602081101561058f57600080fd5b8101908080359060200190929190505050611104565b604051808273ffffffffffffffffffffffffffffffffffffffff16815260200191505060405180910390f35b6105d961113b565b6040518080602001828103825283818151815260200191508051906020019080838360005b838110156106195780820151818401526020810190506105fe565b50505050905090810190601f1680156106465780820380516001836020036101000a031916815260200191505b509250505060405180910390f35b6106966004803603602081101561066a57600080fd5b81019080803573ffffffffffffffffffffffffffffffffffffffff1690602001909291905050506111dd565b6040518082815260200191505060405180910390f35b6107fc600480360360408110156106c257600080fd5b81019080803590602001906401000000008111156106df57600080fd5b8201836020820111156106f157600080fd5b8035906020019184600183028401116401000000008311171561071357600080fd5b91908080601f016020809104026020016040519081016040528093929190818152602001838380828437600081840152601f19601f8201169050808301925050505050505091929192908035906020019064010000000081111561077657600080fd5b82018360208201111561078857600080fd5b803590602001918460018302840111640100000000831117156107aa57600080fd5b91908080601f016020809104026020016040519081016040528093929190818152602001838380828437600081840152601f19601f8201169050808301925050505050505091929192905050506112b2565b005b61080661199e565b6040518080602001828103825283818151815260200191508051906020019080838360005b8381101561084657808201518184015260208101905061082b565b50505050905090810190601f1680156108735780820380516001836020036101000a031916815260200191505b509250505060405180910390f35b6108ad6004803603602081101561089757600080fd5b8101908080359060200190929190505050611a40565b604051808273ffffffffffffffffffffffffffffffffffffffff16815260200191505060405180910390f35b610927600480360360408110156108ef57600080fd5b81019080803573ffffffffffffffffffffffffffffffffffffffff169060200190929190803515159060200190929190505050611a73565b005b610a2c6004803603608081101561093f57600080fd5b81019080803573ffffffffffffffffffffffffffffffffffffffff169060200190929190803573ffffffffffffffffffffffffffffffffffffffff16906020019092919080359060200190929190803590602001906401000000008111156109a657600080fd5b8201836020820111156109b857600080fd5b803590602001918460018302840111640100000000831117156109da57600080fd5b91908080601f016020809104026020016040519081016040528093929190818152602001838380828437600081840152601f19601f820116905080830192505050505050509192919290505050611c29565b005b610a5a60048036036020811015610a4457600080fd5b8101908080359060200190929190505050611ca1565b6040518080602001828103825283818151815260200191508051906020019080838360005b83811015610a9a578082015181840152602081019050610a7f565b50505050905090810190601f168015610ac75780820380516001836020036101000a031916815260200191505b509250505060405180910390f35b610b0160048036036020811015610aeb57600080fd5b8101908080359060200190929190505050611f72565b60405180821515815260200191505060405180910390f35b610b7b60048036036040811015610b2f57600080fd5b81019080803573ffffffffffffffffffffffffffffffffffffffff169060200190929190803573ffffffffffffffffffffffffffffffffffffffff169060200190929190505050611f92565b60405180821515815260200191505060405180910390f35b6000806000837bffffffffffffffffffffffffffffffffffffffffffffffffffffffff19167bffffffffffffffffffffffffffffffffffffffffffffffffffffffff1916815260200190815260200160002060009054906101000a900460ff169050919050565b606060068054600181600116156101000203166002900480601f016020809104026020016040519081016040528092919081815260200182805460018160011615610100020316600290048015610c925780601f10610c6757610100808354040283529160200191610c92565b820191906000526020600020905b815481529060010190602001808311610c7557829003601f168201915b5050505050905090565b6000610ca782612026565b610cfc576040517f08c379a000000000000000000000000000000000000000000000000000000000815260040180806020018281038252602c815260200180613488602c913960400191505060405180910390fd5b6004600083815260200190815260200160002060009054906101000a900473ffffffffffffffffffffffffffffffffffffffff169050919050565b6000610d4282611104565b90508073ffffffffffffffffffffffffffffffffffffffff168373ffffffffffffffffffffffffffffffffffffffff161415610dc9576040517f08c379a000000000000000000000000000000000000000000000000000000000815260040180806020018281038252602181526020018061350c6021913960400191505060405180910390fd5b8073ffffffffffffffffffffffffffffffffffffffff16610de8612043565b73ffffffffffffffffffffffffffffffffffffffff161480610e175750610e1681610e11612043565b611f92565b5b610e6c576040517f08c379a00000000000000000000000000000000000000000000000000000000081526004018080602001828103825260388152602001806133db6038913960400191505060405180910390fd5b610e76838361204b565b505050565b600c8181548110610e8b57600080fd5b9060005260206000209060020201600091509050806000018054600181600116156101000203166002900480601f016020809104026020016040519081016040528092919081815260200182805460018160011615610100020316600290048015610f375780601f10610f0c57610100808354040283529160200191610f37565b820191906000526020600020905b815481529060010190602001808311610f1a57829003601f168201915b505050505090806001018054600181600116156101000203166002900480601f016020809104026020016040519081016040528092919081815260200182805460018160011615610100020316600290048015610fd55780601f10610faa57610100808354040283529160200191610fd5565b820191906000526020600020905b815481529060010190602001808311610fb857829003601f168201915b5050505050905082565b6000610feb6002612104565b905090565b611001610ffb612043565b82612119565b611056576040517f08c379a000000000000000000000000000000000000000000000000000000000815260040180806020018281038252603181526020018061355a6031913960400191505060405180910390fd5b61106183838361220d565b505050565b60006110b982600160008673ffffffffffffffffffffffffffffffffffffffff1673ffffffffffffffffffffffffffffffffffffffff16815260200190815260200160002061245090919063ffffffff16565b905092915050565b6110dc83838360405180602001604052806000815250611c29565b505050565b6000806110f883600261246a90919063ffffffff16565b50905080915050919050565b60006111348260405180606001604052806029815260200161343d6029913960026124969092919063ffffffff16565b9050919050565b606060098054600181600116156101000203166002900480601f0160208091040260200160405190810160405280929190818152602001828054600181600116156101000203166002900480156111d35780601f106111a8576101008083540402835291602001916111d3565b820191906000526020600020905b8154815290600101906020018083116111b657829003601f168201915b5050505050905090565b60008073ffffffffffffffffffffffffffffffffffffffff168273ffffffffffffffffffffffffffffffffffffffff161415611264576040517f08c379a000000000000000000000000000000000000000000000000000000000815260040180806020018281038252602a815260200180613413602a913960400191505060405180910390fd5b6112ab600160008473ffffffffffffffffffffffffffffffffffffffff1673ffffffffffffffffffffffffffffffffffffffff1681526020019081526020016000206124b5565b9050919050565b600b60008383604051602001808060200180602001838103835285818151815260200191508051906020019080838360005b838110156112ff5780820151818401526020810190506112e4565b50505050905090810190601f16801561132c5780820380516001836020036101000a031916815260200191505b50838103825284818151815260200191508051906020019080838360005b8381101561136557808201518184015260208101905061134a565b50505050905090810190601f1680156113925780820380516001836020036101000a031916815260200191505b5094505050505060405160208183030381529060405280519060200120815260200190815260200160002060009054906101000a900460ff1615611421576040517f08c379a000000000000000000000000000000000000000000000000000000000815260040180806020018281038252602d81526020018061352d602d913960400191505060405180910390fd5b604051602001808060200182810382526000815260200191505060405160208183030381529060405280519060200120826040516020018080602001828103825283818151815260200191508051906020019080838360005b8381101561149557808201518184015260208101905061147a565b50505050905090810190601f1680156114c25780820380516001836020036101000a031916815260200191505b5092505050604051602081830303815290604052805190602001201415611551576040517f08c379a000000000000000000000000000000000000000000000000000000000815260040180806020018281038252601d8152602001807f54686520636f6c6f722073686f756c64206e6f7420626520656d70747900000081525060200191505060405180910390fd5b604051602001808060200182810382526000815260200191505060405160208183030381529060405280519060200120816040516020018080602001828103825283818151815260200191508051906020019080838360005b838110156115c55780820151818401526020810190506115aa565b50505050905090810190601f1680156115f25780820380516001836020036101000a031916815260200191505b5092505050604051602081830303815290604052805190602001201415611681576040517f08c379a000000000000000000000000000000000000000000000000000000000815260040180806020018281038252601c8152602001807f5468652068696c742073686f756c64206e6f7420626520656d7074790000000081525060200191505060405180910390fd5b600c604051806040016040528084815260200183815250908060018154018082558091505060019003906000526020600020906002020160009091909190915060008201518160000190805190602001906116dd929190613265565b5060208201518160010190805190602001906116fa929190613265565b50505060006001600c8054905003905061171433826124ca565b33600a600083815260200190815260200160002060006101000a81548173ffffffffffffffffffffffffffffffffffffffff021916908373ffffffffffffffffffffffffffffffffffffffff16021790555060008383604051602001808060200180602001838103835285818151815260200191508051906020019080838360005b838110156117b1578082015181840152602081019050611796565b50505050905090810190601f1680156117de5780820380516001836020036101000a031916815260200191505b50838103825284818151815260200191508051906020019080838360005b838110156118175780820151818401526020810190506117fc565b50505050905090810190601f1680156118445780820380516001836020036101000a031916815260200191505b509450505050506040516020818303038152906040528051906020012090506001600b600083815260200190815260200160002060006101000a81548160ff0219169083151502179055507fffefbf8362f48a1f86dfe5f46d3d28ae3692d22f2a11b4341bb7b10e8c9b54c78484604051808060200180602001838103835285818151815260200191508051906020019080838360005b838110156118f65780820151818401526020810190506118db565b50505050905090810190601f1680156119235780820380516001836020036101000a031916815260200191505b50838103825284818151815260200191508051906020019080838360005b8381101561195c578082015181840152602081019050611941565b50505050905090810190601f1680156119895780820380516001836020036101000a031916815260200191505b5094505050505060405180910390a150505050565b606060078054600181600116156101000203166002900480601f016020809104026020016040519081016040528092919081815260200182805460018160011615610100020316600290048015611a365780601f10611a0b57610100808354040283529160200191611a36565b820191906000526020600020905b815481529060010190602001808311611a1957829003601f168201915b5050505050905090565b600a6020528060005260406000206000915054906101000a900473ffffffffffffffffffffffffffffffffffffffff1681565b611a7b612043565b73ffffffffffffffffffffffffffffffffffffffff168273ffffffffffffffffffffffffffffffffffffffff161415611b1c576040517f08c379a00000000000000000000000000000000000000000000000000000000081526004018080602001828103825260198152602001807f4552433732313a20617070726f766520746f2063616c6c65720000000000000081525060200191505060405180910390fd5b8060056000611b29612043565b73ffffffffffffffffffffffffffffffffffffffff1673ffffffffffffffffffffffffffffffffffffffff16815260200190815260200160002060008473ffffffffffffffffffffffffffffffffffffffff1673ffffffffffffffffffffffffffffffffffffffff16815260200190815260200160002060006101000a81548160ff0219169083151502179055508173ffffffffffffffffffffffffffffffffffffffff16611bd6612043565b73ffffffffffffffffffffffffffffffffffffffff167f17307eab39ab6107e8899845ad3d59bd9653f200f220920489ca2b5937696c318360405180821515815260200191505060405180910390a35050565b611c3a611c34612043565b83612119565b611c8f576040517f08c379a000000000000000000000000000000000000000000000000000000000815260040180806020018281038252603181526020018061355a6031913960400191505060405180910390fd5b611c9b848484846126be565b50505050565b6060611cac82612026565b611d01576040517f08c379a000000000000000000000000000000000000000000000000000000000815260040180806020018281038252602f8152602001806134dd602f913960400191505060405180910390fd5b6000600860008481526020019081526020016000208054600181600116156101000203166002900480601f016020809104026020016040519081016040528092919081815260200182805460018160011615610100020316600290048015611daa5780601f10611d7f57610100808354040283529160200191611daa565b820191906000526020600020905b815481529060010190602001808311611d8d57829003601f168201915b505050505090506000611dbb61113b565b9050600081511415611dd1578192505050611f6d565b600082511115611ea25780826040516020018083805190602001908083835b60208310611e135780518252602082019150602081019050602083039250611df0565b6001836020036101000a03801982511681845116808217855250505050505090500182805190602001908083835b60208310611e645780518252602082019150602081019050602083039250611e41565b6001836020036101000a0380198251168184511680821785525050505050509050019250505060405160208183030381529060405292505050611f6d565b80611eac85612730565b6040516020018083805190602001908083835b60208310611ee25780518252602082019150602081019050602083039250611ebf565b6001836020036101000a03801982511681845116808217855250505050505090500182805190602001908083835b60208310611f335780518252602082019150602081019050602083039250611f10565b6001836020036101000a03801982511681845116808217855250505050505090500192505050604051602081830303815290604052925050505b919050565b600b6020528060005260406000206000915054906101000a900460ff1681565b6000600560008473ffffffffffffffffffffffffffffffffffffffff1673ffffffffffffffffffffffffffffffffffffffff16815260200190815260200160002060008373ffffffffffffffffffffffffffffffffffffffff1673ffffffffffffffffffffffffffffffffffffffff16815260200190815260200160002060009054906101000a900460ff16905092915050565b600061203c82600261287790919063ffffffff16565b9050919050565b600033905090565b816004600083815260200190815260200160002060006101000a81548173ffffffffffffffffffffffffffffffffffffffff021916908373ffffffffffffffffffffffffffffffffffffffff160217905550808273ffffffffffffffffffffffffffffffffffffffff166120be83611104565b73ffffffffffffffffffffffffffffffffffffffff167f8c5be1e5ebec7d5bd14f71427d1e84f3dd0314c0f7b2291e5b200ac8c7c3b92560405160405180910390a45050565b600061211282600001612891565b9050919050565b600061212482612026565b612179576040517f08c379a000000000000000000000000000000000000000000000000000000000815260040180806020018281038252602c8152602001806133af602c913960400191505060405180910390fd5b600061218483611104565b90508073ffffffffffffffffffffffffffffffffffffffff168473ffffffffffffffffffffffffffffffffffffffff1614806121f357508373ffffffffffffffffffffffffffffffffffffffff166121db84610c9c565b73ffffffffffffffffffffffffffffffffffffffff16145b8061220457506122038185611f92565b5b91505092915050565b8273ffffffffffffffffffffffffffffffffffffffff1661222d82611104565b73ffffffffffffffffffffffffffffffffffffffff1614612299576040517f08c379a00000000000000000000000000000000000000000000000000000000081526004018080602001828103825260298152602001806134b46029913960400191505060405180910390fd5b600073ffffffffffffffffffffffffffffffffffffffff168273ffffffffffffffffffffffffffffffffffffffff16141561231f576040517f08c379a00000000000000000000000000000000000000000000000000000000081526004018080602001828103825260248152602001806133656024913960400191505060405180910390fd5b61232a8383836128a2565b61233560008261204b565b61238681600160008673ffffffffffffffffffffffffffffffffffffffff1673ffffffffffffffffffffffffffffffffffffffff1681526020019081526020016000206128a790919063ffffffff16565b506123d881600160008573ffffffffffffffffffffffffffffffffffffffff1673ffffffffffffffffffffffffffffffffffffffff1681526020019081526020016000206128c190919063ffffffff16565b506123ef818360026128db9092919063ffffffff16565b50808273ffffffffffffffffffffffffffffffffffffffff168473ffffffffffffffffffffffffffffffffffffffff167fddf252ad1be2c89b69c2b068fc378daa952ba7f163c4a11628f55a4df523b3ef60405160405180910390a4505050565b600061245f8360000183612910565b60001c905092915050565b60008060008061247d8660000186612993565b915091508160001c8160001c9350935050509250929050565b60006124a9846000018460001b84612a2c565b60001c90509392505050565b60006124c382600001612b22565b9050919050565b600073ffffffffffffffffffffffffffffffffffffffff168273ffffffffffffffffffffffffffffffffffffffff16141561256d576040517f08c379a00000000000000000000000000000000000000000000000000000000081526004018080602001828103825260208152602001807f4552433732313a206d696e7420746f20746865207a65726f206164647265737381525060200191505060405180910390fd5b61257681612026565b156125e9576040517f08c379a000000000000000000000000000000000000000000000000000000000815260040180806020018281038252601c8152602001807f4552433732313a20746f6b656e20616c7265616479206d696e7465640000000081525060200191505060405180910390fd5b6125f5600083836128a2565b61264681600160008573ffffffffffffffffffffffffffffffffffffffff1673ffffffffffffffffffffffffffffffffffffffff1681526020019081526020016000206128c190919063ffffffff16565b5061265d818360026128db9092919063ffffffff16565b50808273ffffffffffffffffffffffffffffffffffffffff16600073ffffffffffffffffffffffffffffffffffffffff167fddf252ad1be2c89b69c2b068fc378daa952ba7f163c4a11628f55a4df523b3ef60405160405180910390a45050565b6126c984848461220d565b6126d584848484612b33565b61272a576040517f08c379a00000000000000000000000000000000000000000000000000000000081526004018080602001828103825260328152602001806133336032913960400191505060405180910390fd5b50505050565b60606000821415612778576040518060400160405280600181526020017f30000000000000000000000000000000000000000000000000000000000000008152509050612872565b600082905060005b600082146127a2578080600101915050600a828161279a57fe5b049150612780565b60008167ffffffffffffffff811180156127bb57600080fd5b506040519080825280601f01601f1916602001820160405280156127ee5781602001600182028036833780820191505090505b50905060006001830390508593505b6000841461286a57600a848161280f57fe5b0660300160f81b8282806001900393508151811061282957fe5b60200101907effffffffffffffffffffffffffffffffffffffffffffffffffffffffffffff1916908160001a905350600a848161286257fe5b0493506127fd565b819450505050505b919050565b6000612889836000018360001b612d4c565b905092915050565b600081600001805490509050919050565b505050565b60006128b9836000018360001b612d6f565b905092915050565b60006128d3836000018360001b612e57565b905092915050565b6000612907846000018460001b8473ffffffffffffffffffffffffffffffffffffffff1660001b612ec7565b90509392505050565b600081836000018054905011612971576040517f08c379a00000000000000000000000000000000000000000000000000000000081526004018080602001828103825260228152602001806133116022913960400191505060405180910390fd5b82600001828154811061298057fe5b9060005260206000200154905092915050565b600080828460000180549050116129f5576040517f08c379a00000000000000000000000000000000000000000000000000000000081526004018080602001828103825260228152602001806134666022913960400191505060405180910390fd5b6000846000018481548110612a0657fe5b906000526020600020906002020190508060000154816001015492509250509250929050565b60008084600101600085815260200190815260200160002054905060008114158390612af3576040517f08c379a00000000000000000000000000000000000000000000000000000000081526004018080602001828103825283818151815260200191508051906020019080838360005b83811015612ab8578082015181840152602081019050612a9d565b50505050905090810190601f168015612ae55780820380516001836020036101000a031916815260200191505b509250505060405180910390fd5b50846000016001820381548110612b0657fe5b9060005260206000209060020201600101549150509392505050565b600081600001805490509050919050565b6000612b548473ffffffffffffffffffffffffffffffffffffffff16612fa3565b612b615760019050612d44565b6000612ccb63150b7a0260e01b612b76612043565b888787604051602401808573ffffffffffffffffffffffffffffffffffffffff1681526020018473ffffffffffffffffffffffffffffffffffffffff16815260200183815260200180602001828103825283818151815260200191508051906020019080838360005b83811015612bfa578082015181840152602081019050612bdf565b50505050905090810190601f168015612c275780820380516001836020036101000a031916815260200191505b5095505050505050604051602081830303815290604052907bffffffffffffffffffffffffffffffffffffffffffffffffffffffff19166020820180517bffffffffffffffffffffffffffffffffffffffffffffffffffffffff8381831617835250505050604051806060016040528060328152602001613333603291398773ffffffffffffffffffffffffffffffffffffffff16612fb69092919063ffffffff16565b90506000818060200190516020811015612ce457600080fd5b8101908080519060200190929190505050905063150b7a0260e01b7bffffffffffffffffffffffffffffffffffffffffffffffffffffffff1916817bffffffffffffffffffffffffffffffffffffffffffffffffffffffff191614925050505b949350505050565b600080836001016000848152602001908152602001600020541415905092915050565b60008083600101600084815260200190815260200160002054905060008114612e4b5760006001820390506000600186600001805490500390506000866000018281548110612dba57fe5b9060005260206000200154905080876000018481548110612dd757fe5b9060005260206000200181905550600183018760010160008381526020019081526020016000208190555086600001805480612e0f57fe5b60019003818190600052602060002001600090559055866001016000878152602001908152602001600020600090556001945050505050612e51565b60009150505b92915050565b6000612e638383612fce565b612ebc578260000182908060018154018082558091505060019003906000526020600020016000909190919091505582600001805490508360010160008481526020019081526020016000208190555060019050612ec1565b600090505b92915050565b6000808460010160008581526020019081526020016000205490506000811415612f6e57846000016040518060400160405280868152602001858152509080600181540180825580915050600190039060005260206000209060020201600090919091909150600082015181600001556020820151816001015550508460000180549050856001016000868152602001908152602001600020819055506001915050612f9c565b82856000016001830381548110612f8157fe5b90600052602060002090600202016001018190555060009150505b9392505050565b600080823b905060008111915050919050565b6060612fc58484600085612ff1565b90509392505050565b600080836001016000848152602001908152602001600020541415905092915050565b60608247101561304c576040517f08c379a00000000000000000000000000000000000000000000000000000000081526004018080602001828103825260268152602001806133896026913960400191505060405180910390fd5b61305585612fa3565b6130c7576040517f08c379a000000000000000000000000000000000000000000000000000000000815260040180806020018281038252601d8152602001807f416464726573733a2063616c6c20746f206e6f6e2d636f6e747261637400000081525060200191505060405180910390fd5b6000808673ffffffffffffffffffffffffffffffffffffffff1685876040518082805190602001908083835b6020831061311657805182526020820191506020810190506020830392506130f3565b6001836020036101000a03801982511681845116808217855250505050505090500191505060006040518083038185875af1925050503d8060008114613178576040519150601f19603f3d011682016040523d82523d6000602084013e61317d565b606091505b509150915061318d828286613199565b92505050949350505050565b606083156131a95782905061325e565b6000835111156131bc5782518084602001fd5b816040517f08c379a00000000000000000000000000000000000000000000000000000000081526004018080602001828103825283818151815260200191508051906020019080838360005b83811015613223578082015181840152602081019050613208565b50505050905090810190601f1680156132505780820380516001836020036101000a031916815260200191505b509250505060405180910390fd5b9392505050565b828054600181600116156101000203166002900490600052602060002090601f01602090048101928261329b57600085556132e2565b82601f106132b457805160ff19168380011785556132e2565b828001600101855582156132e2579182015b828111156132e15782518255916020019190600101906132c6565b5b5090506132ef91906132f3565b5090565b5b8082111561330c5760008160009055506001016132f4565b509056fe456e756d657261626c655365743a20696e646578206f7574206f6620626f756e64734552433732313a207472616e7366657220746f206e6f6e20455243373231526563656976657220696d706c656d656e7465724552433732313a207472616e7366657220746f20746865207a65726f2061646472657373416464726573733a20696e73756666696369656e742062616c616e636520666f722063616c6c4552433732313a206f70657261746f7220717565727920666f72206e6f6e6578697374656e7420746f6b656e4552433732313a20617070726f76652063616c6c6572206973206e6f74206f776e6572206e6f7220617070726f76656420666f7220616c6c4552433732313a2062616c616e636520717565727920666f7220746865207a65726f20616464726573734552433732313a206f776e657220717565727920666f72206e6f6e6578697374656e7420746f6b656e456e756d657261626c654d61703a20696e646578206f7574206f6620626f756e64734552433732313a20617070726f76656420717565727920666f72206e6f6e6578697374656e7420746f6b656e4552433732313a207472616e73666572206f6620746f6b656e2074686174206973206e6f74206f776e4552433732314d657461646174613a2055524920717565727920666f72206e6f6e6578697374656e7420746f6b656e4552433732313a20617070726f76616c20746f2063757272656e74206f776e65725468697320636f6d62696e6174696f6e2063616e6e6f74206578697374206d6f7265207468616e206f6e63652e4552433732313a207472616e736665722063616c6c6572206973206e6f74206f776e6572206e6f7220617070726f766564a264697066735822122025ff7d2e07ac7cb0454c0d88d44d90f059ac24f5e997c7c1d149573b394d724e64736f6c63430007060033",
  "immutableReferences": {},
  "source": "// SPDX-License-Identifier: MIT\r\npragma solidity ^0.7.6;\r\n\r\nimport \"../node_modules/@openzeppelin/contracts/token/ERC721/ERC721.sol\";\r\n\r\ncontract LightsaberForge is ERC721 {\r\n\r\n    event LightsaberCreated(string colorCrystal, string hilt);\r\n\r\n    struct Lightsaber {\r\n        string colorCrystal;\r\n        string hilt;\r\n    }\r\n\r\n    mapping (uint256 => address) public lightsaberToOwner;\r\n    mapping (bytes32 => bool) public combinationExists;\r\n\r\n    Lightsaber[] public lightsabers;\r\n\r\n    constructor() ERC721(\"LightsaberForge\", \"LSF\") {}\r\n\r\n    function mint(string memory _colorCrystal, string memory _hilt) public {\r\n        require(!combinationExists[keccak256(abi.encode(_colorCrystal, _hilt))], \"This combination cannot exist more than once.\");\r\n        require(keccak256(abi.encode(_colorCrystal)) != keccak256(abi.encode(\"\")), \"The color should not be empty\");\r\n        require(keccak256(abi.encode(_hilt)) != keccak256(abi.encode(\"\")), \"The hilt should not be empty\");\r\n         lightsabers.push(Lightsaber(_colorCrystal, _hilt));\r\n         uint256 _id = lightsabers.length - 1;\r\n        _mint(msg.sender, _id);\r\n        lightsaberToOwner[_id] = msg.sender;\r\n        bytes32 _combination = keccak256(abi.encode(_colorCrystal, _hilt));\r\n        combinationExists[_combination] = true;\r\n\r\n        emit LightsaberCreated(_colorCrystal, _hilt);\r\n    }\r\n\r\n}",
  "sourcePath": "C:\\Users\\Metodi\\Desktop\\ProjectsDapp\\nft-lightsabers\\contracts\\LightsaberForge.sol",
  "compiler": {
    "name": "solc",
    "version": "0.7.6+commit.7338295f.Emscripten.clang"
  },
  "schemaVersion": "3.3.4",
  "updatedAt": "2021-03-12T20:33:15.901Z",
  "networkType": "ethereum",
  "devdoc": {
    "kind": "dev",
    "methods": {
      "approve(address,uint256)": {
        "details": "See {IERC721-approve}."
      },
      "balanceOf(address)": {
        "details": "See {IERC721-balanceOf}."
      },
      "baseURI()": {
        "details": "Returns the base URI set via {_setBaseURI}. This will be automatically added as a prefix in {tokenURI} to each token's URI, or to the token ID if no specific URI is set for that token ID."
      },
      "getApproved(uint256)": {
        "details": "See {IERC721-getApproved}."
      },
      "isApprovedForAll(address,address)": {
        "details": "See {IERC721-isApprovedForAll}."
      },
      "name()": {
        "details": "See {IERC721Metadata-name}."
      },
      "ownerOf(uint256)": {
        "details": "See {IERC721-ownerOf}."
      },
      "safeTransferFrom(address,address,uint256)": {
        "details": "See {IERC721-safeTransferFrom}."
      },
      "safeTransferFrom(address,address,uint256,bytes)": {
        "details": "See {IERC721-safeTransferFrom}."
      },
      "setApprovalForAll(address,bool)": {
        "details": "See {IERC721-setApprovalForAll}."
      },
      "supportsInterface(bytes4)": {
        "details": "See {IERC165-supportsInterface}. Time complexity O(1), guaranteed to always use less than 30 000 gas."
      },
      "symbol()": {
        "details": "See {IERC721Metadata-symbol}."
      },
      "tokenByIndex(uint256)": {
        "details": "See {IERC721Enumerable-tokenByIndex}."
      },
      "tokenOfOwnerByIndex(address,uint256)": {
        "details": "See {IERC721Enumerable-tokenOfOwnerByIndex}."
      },
      "tokenURI(uint256)": {
        "details": "See {IERC721Metadata-tokenURI}."
      },
      "totalSupply()": {
        "details": "See {IERC721Enumerable-totalSupply}."
      },
      "transferFrom(address,address,uint256)": {
        "details": "See {IERC721-transferFrom}."
      }
    },
    "version": 1
  },
  "userdoc": {
    "kind": "user",
    "methods": {},
    "version": 1
  }
}